:100000000C943A000C9457000C9457000C94570031
:100010000C9457000C9457000C9457000C94B205A4
:100020000C9457000C9457000C9457000C945700F4
:100030000C9457000C9457000C9457000C945700E4
:100040000C9457000C9457000C9457000C945700D4
:100050000C945700CC02D802DF02E702EE02F50250
:10006000FC020303680374037B0383038A03910385
:1000700098039F0311241FBECFE5D8E0DEBFCDBF9C
:1000800010E0A0E6B0E0E4E6FCE102C005900D92CD
:10009000AE3BB107D9F727E0AEEBB0E001C01D924F
:1000A000A932B207E1F70E940A0D0C94300E0C94AD
:1000B0000000CF93DF93CDB7DEB727970FB6F89444
:1000C000DEBF0FBECDBF25E0E0E6F0E0CE01019639
:1000D000DC0101900D922A95E1F79F838E8380E0E9
:1000E0000E94B602813061F420E04FEF5FEFBE0165
:1000F0006A5F7F4F80912707909128070E9416071B
:1001000081E290E00E945F0BEACFCF93DF93CDB7FF
:10011000DEB727970FB6F894DEBF0FBECDBF25E040
:10012000E5E6F0E0CE010196DC0101900D922A9502
:10013000E1F79F838E8381E00E94B602813061F4F3
:1001400020E04FEF5FEFBE016A5F7F4F809127078E
:10015000909128070E94160788E290E00E945F0BAA
:10016000EACFCF93DF9300D0CDB7DEB70F2EF5E007
:10017000EF2EF02DC12CD12C10E0F12C0F2EF3E03E
:100180006F2EF02D442443940F2EF5E03F2EF02DDA
:100190006894552451F80F2EF6E8AF2EF0E0BF2EEC
:1001A000F02D7F2C01C0162D0091C80001C0072D35
:1001B000123009F490C0133009F49AC01111F7CF2E
:1001C000F092C80040E050E0BE016F5F7F4F809129
:1001D0002707909128070E94AF07013051F59091B1
:1001E000C700913009F0D2C04091C3005091C400C3
:1001F0006091C5007091C600662777274093C300C1
:100200005093C4006093C5007093C600BFC0409176
:10021000BE005091BF006091C0007091C100662780
:1002200077274093BE005093BF006093C000709347
:10023000C100813049F4E981FA81C180D280838094
:100240009480E080152DB0CF8091C7008130F1F40B
:100250004091C3005091C4006091C5007091C600E8
:100260008091C9009091CA00A0E0B0E08417950782
:10027000A607B70758F0F092C700E32C942C842C03
:1002800087E890E0C82ED92E152D8ECF8091C20020
:100290008130E1F44091BE005091BF006091C000F8
:1002A0007091C1008091C9009091CA00A0E0B0E0B7
:1002B00084179507A607B70748F0F092C200E32C11
:1002C000942C852CCA2CDB2C152D6ECF81E090E070
:1002D0000E945F0B69CFF092C800692D882D0E94A3
:1002E000C403811160CF81E090E00E945F0B5CCF7E
:1002F000F092C8008C2D9D2D0E94AB03811105C08A
:1003000081E090E00E945F0B4FCF95E0E916C1F1CC
:1003100080E10E94EC03EE2021F081E0E816C9F0B4
:100320002FC080E20E94EC038091C9009091CA0026
:10033000A0E0B0E08C509E4FAF4FBF4F8093C30002
:100340009093C400A093C500B093C6004092C7002C
:1003500017C080E40E94F1038091C9009091CA0007
:10036000A0E0B0E08C509E4FAF4FBF4F8093BE00D7
:100370009093BF00A093C000B093C1004092C20010
:1003800083E090E00E945F0B1F2D0ECF9091C20082
:10039000913009F04ECF3BCF0E94B3020E940F0371
:1003A000811105C081E090E00E945F0BF7CF809142
:1003B000CD009091CE000E94C8098091CB00909111
:1003C000CC000E94C8098091CF009091D0000E947B
:1003D000D90BE4CFEF92FF920F931F93CF93DF934C
:1003E000009709F471C0EC010F2EFFECEF2EF0E046
:1003F000FF2EF02D04E020E030E044E650E068E914
:1004000070E08CEC91E00E94BF0888830F2EFDEC19
:10041000EF2EF0E0FF2EF02D01E020E030E044E68A
:1004200050E062EA70E089E590E00E94BF088983AD
:100430000F2EFBECEF2EF0E0FF2EF02D02E020E07F
:1004400030E044E650E06BEA70E085E890E00E941E
:10045000BF088A830F2EF1EDEF2EF0E0FF2EF02D76
:1004600003E020E030E044E650E064EB70E081EB34
:1004700090E00E94BF088B83FE01249611E021E0EA
:1004800090E08081813019F01082192F01C0208303
:100490003196EC17FD07A9F740E062E085E00E9485
:1004A000E9069093280780932707892B79F080919C
:1004B000CD009091CE000E94D90B8091CB009091FD
:1004C000CC000E94D90B03C01FEF01C01EEF812F8B
:1004D000DF91CF911F910F91FF90EF9008952091A0
:1004E000C9003091CA00C90101968217930718F418
:1004F00021E02093C8009093CA008093C90008951A
:10050000882319F08130B9F02CC064E082E00E94A9
:10051000970D813061F48091D400813019F41092EC
:10052000D40008958F5F8093D40080E008951092E6
:10053000D40080E0089562E081E00E94970D813050
:1005400061F48091D300813019F41092D3000895A2
:100550008F5F8093D30080E008951092D30080E0F5
:10056000089580E00895A498BA980895CF93C82F6D
:100570000E9480028C2F0E948002CF910895E0910A
:10058000D7004E2F50E04830510508F041C0FA0125
:10059000E65DFF4F0C94210E40E062E080E00E9497
:1005A0004F0D40E064E080E00E944F0D80E031C0DC
:1005B00041E068E080E00E944F0D80E02AC0682F93
:1005C00062956F7080E00E94F50D80E022C040E0EF
:1005D00068E080E00E944F0D80E01BC041E068E0D1
:1005E00080E00E944F0D80E014C0682F6F7080E0A3
:1005F0000E94F50D80E00DC040E068E080E00E94C0
:100600004F0D80E006C08FEF8093D70081E001C0DE
:1006100080E09091D7009F5F9093D7000895CF938B
:10062000C091D800C23069F128F4CC2341F0C13028
:10063000F1F03EC0C33079F1C43079F039C041E007
:100640006EE080E00E941B0D61E080E00E94C50D1D
:1006500084E08093D80080E02CC082E00E94BF023A
:10066000813009F4C82FC093D80080E022C088E20E
:100670000E94BF02813009F4C2E0C093D80080E03C
:1006800018C08CE00E94BF02813009F4C3E0C0931F
:10069000D80080E00EC081E00E94BF02813009F4E2
:1006A000C0E0C093D80081E0CC2319F080E001C005
:1006B00080E0CF910895E091D6004E2F50E0483071
:1006C000510508F041C0FA01EE5CFF4F0C94210E79
:1006D00041E062E080E00E944F0D40E064E080E095
:1006E0000E944F0D80E031C041E068E080E00E9450
:1006F0004F0D80E02AC0682F62956F7080E00E94E5
:10070000F50D80E022C040E068E080E00E944F0DDF
:1007100080E01BC041E068E080E00E944F0D80E077
:1007200014C0682F6F7080E00E94F50D80E00DC04E
:1007300040E068E080E00E944F0D80E006C08FEF4F
:100740008093D60081E001C080E09091D6009F5F49
:100750009093D60008952091D500820F911DFC0141
:100760008081882359F00E945B03813059F4809185
:10077000D5008F5F8093D50080E008951092D5005A
:1007800081E0089580E00895CF93DF9300D000D0FA
:10079000CDB7DEB790E8998390EC9A8394E99B8378
:1007A00094ED9C83FE01E80FF11D61508081860F5E
:1007B0000E94BF020F900F900F900F90DF91CF918A
:1007C000089541E060EF81E00E941B0D40E060EF82
:1007D00081E00E944F0D0895682F81E00E947F0DF7
:1007E000089541E0682F81E00E944F0D0895CF9356
:1007F000DF93EC010E94390A8091D9009091DA00D0
:10080000892B31F48EED90E09093DA008093D9003B
:100810002091DB003091DC00C9018C0F9D1F8B3DC6
:1008200045E0940770F42817390770F4C091D90097
:10083000D091DA00C20FD31F9093DC008093DB00CD
:1008400005C0C0E0D0E002C0C0E0D0E00E94E80AED
:10085000CE01DF91CF9108950895FC010396928314
:1008600081832FEF3FEF34832383968385839087A3
:10087000878310820895FC01118610860895CF9316
:10088000DF939C01FB01DC011196CD91DC91129765
:10089000D383C2838C819D81958384838C819D8148
:1008A000DC0113967C936E9312977D836C83318762
:1008B0002087F90180818F5F8083DF91CF91089538
:1008C000CF93DF93EB01488159814F3F2FEF5207C0
:1008D00021F4FC01A781B0850DC0DC01139601C095
:1008E000DF011296ED91FC9113972081318142171F
:1008F0005307B0F71296ED91FC911397FB83EA83AF
:10090000D583C483BD83AC831396DC93CE931297B7
:1009100099878887FC0120812F5F2083DF91CF9109
:100920000895CF93DF93FC01A085B185C281D38167
:10093000848195819D838C83C481D58182819381BB
:100940009B838A8311968D919C911297E817F907E2
:1009500031F48481958112969C938E931197118620
:1009600010868C9181508C938C91DF91CF9108955A
:1009700031E1FC013083319722E220833197A3E3F8
:10098000A0833197608331977083319710823197BC
:1009900060E8608331971082319762E0608331971D
:1009A00063E06083319764E06083319765E0608342
:1009B000319766E06083319767E06083319768E044
:1009C0006083319769E06083319760E1608331979C
:1009D0003083319732E13083319733E1308331977F
:1009E00034E13083319735E13083319736E130831C
:1009F000319737E13083319738E13083319739E1EE
:100A00003083319730E23083319731E23083319750
:100A10002083319723E2208331974083319750839D
:100A2000319726E22083319727E22083319728E20D
:100A30002083319729E22083319720E32083319767
:100A400021E32083869708951BBC8CE78ABD8BE049
:100A50008EBD89B7806189BFA0912507B091260717
:100A6000CD91CDBFDD91DEBFFF91EF91DF91CF91B1
:100A7000BF91AF919F918F917F916F915F914F91B6
:100A80003F912F911F910F91FF90EF90DF90CF90AA
:100A9000BF90AF909F908F907F906F905F904F909E
:100AA0003F902F901F900F900FBE0F90089581E000
:100AB00008950F920FB6F8940F921F9211242F925F
:100AC0003F924F925F926F927F928F929F92AF92DE
:100AD000BF92CF92DF92EF92FF920F931F932F93CB
:100AE0003F934F935F936F937F938F939F93AF93B6
:100AF000BF93CF93DF93EF93FF93A0912507B0911E
:100B000026070DB60D920EB60D920E94730BA091A2
:100B10002507B0912607CD91CDBFDD91DEBFFF91B6
:100B2000EF91DF91CF91BF91AF919F918F917F9185
:100B30006F915F914F913F912F911F910F91FF9076
:100B4000EF90DF90CF90BF90AF909F908F907F906D
:100B50006F905F904F903F902F901F900F900FBE1F
:100B60000F9008951F920F920FB60F9211242F939A
:100B70003F934F935F936F937F938F939F93AF9325
:100B8000BF93EF93FF930E943F0AFF91EF91BF91B4
:100B9000AF919F918F917F916F915F914F913F9115
:100BA0002F910F900FBE0F901F9018950FB6F894CD
:100BB0000F92FC01928D0F900FBE81E0911180E0A9
:100BC00008950F931F93CF93DF93EC01042F1A8D99
:100BD0004C8D41110CC088819981892B09F042C04C
:100BE0008C819D810E94CA0C1D821C8242C0011111
:100BF00017C050E08A819B810E94270E2C8D8A812C
:100C00009B81820F911D9B838A832C813D8182175A
:100C1000930750F1888199819B838A8380E029C062
:100C200050E08E819F810E94270E8C8D90E09195DF
:100C3000819591092E813F81280F391F3F832E8393
:100C4000488159812417350730F42C813D81820F6A
:100C5000931F9F838E83023049F4112349F0115072
:100C600080E007C080E005C080E003C080E001C0F4
:100C700080E01F5F1A8FDF91CF911F910F91089530
:100C8000FC01448D4423A9F050E026813781240FD4
:100C9000351F37832683848195812817390720F0F3
:100CA0008081918197838683CB01668177810E94C1
:100CB000270E0895EF92FF920F931F93CF938C010D
:100CC0000FB6F8940F92FC01C68D1C16ACF4818906
:100CD000811106C011C0F8018189811105C00CC0C5
:100CE0007801F1E1EF0EF11CC7010E943D0C81116A
:100CF0000E94C60CC15079F78FEFF801868F0F90D4
:100D00000FBE0FB6F8940F92C58D1C16ACF48085FB
:100D1000811106C011C0F8018085811105C00CC089
:100D20007801F8E0EF0EF11CC7010E943D0C811123
:100D30000E94C60CC15079F78FEFF801858F0F9094
:100D40000FBECF911F910F91FF90EF900895CF9319
:100D5000DF93EC010FB6F8940F92E881F9818B8D47
:100D60002C8D90E030E0829FA001839F500D929FD8
:100D7000500D11244E0F5F1F5D834C831A8EFB8331
:100D8000EA830197829FA001839F500D929F500D8F
:100D90001124CF01840F951F9F838E838FEF8D8F3A
:100DA0008E8F611108C08885882369F0CE0108966E
:100DB0000E943D0C08C0CE0108960E942D04CE0171
:100DC00041960E942D040F900FBE81E0DF91CF91DC
:100DD00008950F931F93CF93DF93082F162F662349
:100DE000C1F0869FC00111244F960E94F703EC01C9
:100DF000009741F415C00B8F1C8F61E0CE010E945B
:100E0000A7060EC04F9699838883F5CFD983C883F0
:100E1000F2CF8FE190E00E94F703EC01892BB1F74C
:100E2000CE01DF91CF911F910F9108959F92AF92C4
:100E3000BF92CF92DF92EF92FF920F931F93CF93C7
:100E4000DF9300D000D01F92CDB7DEB78C016B01CD
:100E50005D834C83A22EB12C992493947C0188E06D
:100E6000E80EF11C0FB6F8940F92F801928D838D65
:100E7000981718F0F2E0AF1211C04A2DB601C80160
:100E80000E94E105F8018189882321F0C80141967B
:100E90000E943D0C0F900FBE81E050C08C819D815F
:100EA000892B21F40F900FBE80E048C0B11005C01F
:100EB000CE0101960E94850CB92C0F900FBE0E94A6
:100EC000390A0FB6F8940F92F801858D8F3F09F417
:100ED000158EF801868D8F3F09F4168E0F900FBE88
:100EE000BE016C5F7F4FCE0101960E94900C811174
:100EF0001FC00FB6F8940F92F801928D0F900FBE9D
:100F0000838D98130FC06C817D81C7010E942B0CCB
:100F1000C8010E945A060E94E80A8111A3CF0E94CC
:100F20005905A0CFC8010E945A060E94E80A9ACF2C
:100F3000C8010E945A060E94E80A80E00F900F90B4
:100F40000F900F900F90DF91CF911F910F91FF9015
:100F5000EF90DF90CF90BF90AF909F9008959F92B9
:100F6000AF92BF92CF92DF92EF92FF920F931F93B7
:100F7000CF93DF9300D000D01F92CDB7DEB78C01A6
:100F80005B015D834C83E12C992493946C0181E196
:100F9000C80ED11C0FB6F8940F92F801F28CFF2006
:100FA00091F0B501C8010E944006FA94F801F28E52
:100FB0008085882321F0C80108960E943D0C0F907F
:100FC0000FBE81E051C08C819D81892B21F40F904F
:100FD0000FBE80E049C0E11005C0CE0101960E941D
:100FE000850CE92C0F900FBE0E94390A0FB6F894B9
:100FF0000F92F801858D8F3F09F4158EF801868DCB
:101000008F3F09F4168E0F900FBEBE016C5F7F4FAD
:10101000CE0101960E94900C81111AC0C8010E9455
:10102000D605882379F06C817D81C6010E942B0C46
:10103000C8010E945A060E94E80A8111ABCF0E94A3
:101040005905A8CFC8010E945A060E94E80AA2CFFB
:10105000C8010E945A060E94E80AC8010E94D605EB
:10106000882309F497CF80E00F900F900F900F9096
:101070000F90DF91CF911F910F91FF90EF90DF9034
:10108000CF90BF90AF909F900895E091DB06F091D4
:10109000DC068081811107C08FEF9FEF9093BD0622
:1010A0008093BC060895E091DB06F091DC06058094
:1010B000F681E02D0680F781E02D82819381909367
:1010C000BD068093BC0608950E945905FDCFFF928E
:1010D0000F931F93CF93DF93EC01F62E0091C4067C
:1010E0001091C506809125079091260702960E94CF
:1010F0009104CF3F8FEFD80769F4FF2059F060913A
:101100002507709126076E5F7F4F87EC96E00E945F
:101110003F042FC0C00FD11FE0912507F091260793
:10112000D383C283C017D10768F4609125077091FB
:1011300026078091D9069091DA066E5F7F4F0E9454
:10114000600417C060912507709126078091DB0627
:101150009091DC066E5F7F4F0E9460048091BC0618
:101160009091BD06C817D90720F4D093BD06C0934F
:10117000BC06DF91CF911F910F91FF9008954F9280
:101180005F926F927F928F929F92AF92BF92CF9217
:10119000DF92EF92FF920F931F93CF93DF934C0157
:1011A0006B015A012901CA010E94F7033C01892BF6
:1011B00009F4DCC084E390E00E94F703EC01892B82
:1011C00059F0788E6F8A81E0A81AB1086A0C7B1CEE
:1011D000C114D10429F420C0C3010E942C04C6C04C
:1011E000D6018C91898F8C918823A1F0AE01465E47
:1011F0005F4FF6013196B4E1CB0ED11CCF012191A6
:10120000DA012D93AD01DC018C91882319F0CE1603
:10121000DF06A1F71CA601C0198E063008F005E014
:101220000E8B0DA71EA66E01B2E0CB0ED11CC6011F
:101230000E943B04CE010C960E943B04D987C887CC
:1012400086E090E0801B91099D878C87DB8BCA8BA1
:101250001FA618AA19AA1AAA1BAAA201B401C3019F
:101260000E94B80499838883E114F10419F0F7010E
:10127000D183C0830FB6F8940F928091C6068F5F1A
:101280008093C6068091250790912607892BA9F5A2
:10129000D0932607C09325078091C6068130E9F5D3
:1012A0000FEE16E00F2EF5E2EF2EF7E0FF2EF02DF9
:1012B000C8010E942D04075F1F4F0E151F05C1F7BF
:1012C00086EE96E00E942D048DED96E00E942D049E
:1012D00080ED96E00E942D0487EC96E00E942D049C
:1012E00086EE96E09093DC068093DB068DED96E02B
:1012F0009093DA068093D90610C08091C2068111BE
:101300000CC0E0912507F091260796898E898917F0
:1013100020F0D0932607C09325078091BE068F5FEB
:101320008093BE068E899091C306981710F480931F
:10133000C30690E09C01220F331F220F331F220FA0
:10134000331F820F931FB6018151994F0E943F04B2
:101350000F900FBE8091C206882331F0809125073F
:101360009091260781E003C081E001C08FEFDF91FB
:10137000CF911F910F91FF90EF90DF90CF90BF9092
:10138000AF909F908F907F906F905F904F90089557
:101390000F931F93CF93DF9320912507309126075A
:1013A00082179307B9F10097A9F10FB6F8940F923D
:1013B000FC0122853385275C364051F5FC012489E8
:1013C0003589F6E0203D3F0719F1232B09F5EC01A3
:1013D0008C010E5F1F4FC8010E9491048E8990916D
:1013E000C306981710F48093C30690E09C01220F67
:1013F000331F220F331F220F331F820F931FB80199
:101400008151994F0E943F048091250790912607B2
:101410000F900FBEDF91CF911F910F910895EF9222
:10142000FF920F930F2EFAEBEF2EF6E0FF2EF02D2A
:1014300000E020E030E045E550E068EB70E084E655
:1014400098E00E94BF08813081F4F8948FEF9FEFFD
:101450009093BD068093BC0681E08093C2061092F3
:10146000C5061092C4060E9424050F91FF90EF90CC
:1014700008958091B9068F5F8093B9060895EF9221
:10148000FF920F931F93CF93DF938091B906811141
:1014900090C0E090C406F090C5068FEFE81AF80AF5
:1014A000F092C506E092C406E114F104B9F480910B
:1014B000DB069091DC062091D9063091DA06309354
:1014C000DC062093DB069093DA068093D9068091A0
:1014D000BF068F5F8093BF060E9445088091BC06BF
:1014E0009091BD06E816F90608F45CC0E091DB06B1
:1014F000F091DC068081882379F0E091DB06F091A1
:10150000DC060580F681E02DC681D7818A819B812A
:10151000E816F906D8F415C08FEF9FEF9093BD063B
:101520008093BC063FC0E091DB06F091DC060580AD
:10153000F681E02DC681D7818A819B81E816F90664
:1015400028F49093BD068093BC062CC08E010E5FDC
:101550001F4FC8010E9491048C899D89892B21F01D
:10156000CE010C960E9491048E899091C306981723
:1015700010F48093C30690E09C01220F331F220FCA
:10158000331F220F331F820F931FB8018151994FD0
:101590000E943F04E091DB06F091DC06808181111E
:1015A000C2CFBACF8091C10681110AC00E946F02DA
:1015B00007C08091C1068F5F8093C1060E946F02B1
:1015C00080E0DF91CF911F910F91FF90EF900895F0
:1015D000DF92EF92FF920F931F93CF93DF930FB69B
:1015E000F8940F928091B90681508093B90680914A
:1015F000B906811159C08091C606811133C054C00B
:10160000D7011596ED91FC911697C681D781CE0131
:101610000C960E9491048E010E5F1F4FC8010E941C
:1016200091048E899091C306981710F48093C30695
:1016300090E09C01220F331F220F331F220F331F14
:10164000820F931FB8018151994F0E943F04E0918E
:101650002507F09126079E898689981768F0D09211
:10166000C0060AC0C0E0D0E00F2EF0EDEF2EF6E08D
:10167000FF2EF02DDD24D394F70180818111C0CF9E
:10168000CD2B11F00E944508C091C106CC2351F02A
:10169000D1E00E943F0A8111D093C006C150C9F722
:1016A0001092C1068091C0060F900FBE80E0DF91BE
:1016B000CF911F910F91FF90EF90DF900895CF93FE
:1016C000DF93EC01892B51F00E94390A60E0CE01D2
:1016D0000E9467080E94E80A811102C00E94590511
:1016E000DF91CF9108958091B906882321F081E0A0
:1016F0008093C00608951092C0062091C306822FE1
:1017000090E0FC01EE0FFF1FEE0FFF1FEE0FFF1F1B
:10171000E80FF91FE151F94F3081311111C021500B
:10172000822F90E0FC01EE0FFF1FEE0FFF1FEE0F68
:10173000FF1FE80FF91FE151F94F3081332379F38F
:10174000AC01440F551F440F551F440F551F480F40
:10175000591FDA01A151B94F1196ED91FC911297E1
:101760000280F381E02D1296FC93EE9311974E5078
:10177000594FE417F50729F442815381FD01528343
:101780004183FC01EE0FFF1FEE0FFF1FEE0FFF1F47
:101790008E0F9F1FFC01E151F94F0180F281E02D76
:1017A0008681978190932607809325072093C3060F
:1017B00008950F931F93CF93DF93EC010FB6F89426
:1017C0000F92892B21F4C0912507D09126078E0115
:1017D0000E5F1F4FC8010E9491048C899D89892B3F
:1017E00021F0CE010C960E949104B80187EC96E09E
:1017F0000E943F048BA9813009F41BAA0F900FBEF1
:101800008091C206882339F00FB6F8940F920E9497
:1018100045080F900FBE8091250790912607C817A5
:10182000D907A1F48091C206882319F00E945905B6
:101830000DC09091C7068091C606981305C01092FE
:1018400026071092250702C00E94730BDF91CF91EB
:101850001F910F910895CF93DF93EB0160912507BE
:1018600070912607645F7F4F0E94600461E0CE01A3
:101870000E946708DF91CF9108950F931F93CF9334
:10188000DF93DC011596ED91FC911697C681D78107
:101890008E01045F1F4FC8010E9491048091B90618
:1018A00081111CC00A501109C8010E9491048E893F
:1018B0009091C306981710F48093C30690E09C01A2
:1018C000220F331F220F331F220F331F820F931F4C
:1018D000B8018151994F0E943F0405C0B80180EDC5
:1018E00096E00E943F04E0912507F09126079E892B
:1018F0008689891720F481E08093C00601C080E0CA
:10190000DF91CF911F910F9108952091BF06FC01A7
:1019100020832091C4063091C50632832183089527
:10192000CF93DF930FB6F8940F922091C4063091B5
:10193000C506DB014D915C914F3FBFEF5B07F1F0B6
:10194000EC01E981FA81A091BF06B881BA1719F0BC
:101950002E173F07A8F42E1B3F0B2417350748F41A
:10196000FB01421B530B518340830E94850C80E096
:1019700008C0FB011182108281E003C080E001C039
:1019800081E00F900FBEDF91CF91089581E08093A9
:10199000C00608950F931F93CF93DF93FC01892B0B
:1019A00079F186A5815086A7268995A5291751F139
:1019B00081112AC0EF018F010E5F1F4FC8010E94E5
:1019C00091048DA58E8B26E030E0281B31093D87E0
:1019D0002C879091C306981710F48093C30690E06B
:1019E0009C01220F331F220F331F220F331F820F40
:1019F000931FB8018151994F0E943F0481E005C0B7
:101A000080E003C080E001C080E0DF91CF911F91B2
:101A10000F910895CF93DF9300D000D0CDB7DEB7FC
:101A20000E94E103CE0101960E94EA01813011F487
:101A30000E940F0AFFCF813089F028F08230C9F070
:101A4000833011F10895413021F48AB3682B6ABBC9
:101A500008958AB3609568236ABB0895413021F4E4
:101A600087B3682B67BB089587B36095682367BB0E
:101A70000895413021F484B3682B64BB089584B386
:101A80006095682364BB0895413021F481B3682BCD
:101A900061BB089581B36095682361BB089581306F
:101AA00081F028F08230B9F08330F9F008958BB3DB
:101AB000962F60956823413009F090E0692B6BBB4D
:101AC000089588B3962F60956823413009F090E01F
:101AD000692B68BB089585B3962F609568234130C4
:101AE00009F090E0692B65BB089582B3962F60954D
:101AF0006823413009F090E0692B62BB0895813082
:101B000051F028F0823059F0833069F008958BB39A
:101B100068276BBB089588B3682768BB089585B3B1
:101B2000682765BB089582B3682762BB089581303A
:101B300079F028F08230A9F08330E1F024C089B335
:101B400090E002C0959587956A95E2F781700895B7
:101B500086B390E002C0959587956A95E2F781700B
:101B6000089583B390E002C0959587956A95E2F752
:101B70008170089580B390E002C0959587956A952D
:101B8000E2F78170089581E00895813081F028F0B6
:101B90008230B9F08330F9F00895613021F48AB3CE
:101BA000806F8ABB08958AB38F708ABB08956130B5
:101BB00021F487B3806F87BB089587B38F7087BB8D
:101BC0000895613021F484B3806F84BB089584B399
:101BD0008F7084BB0895613021F481B3806F81BB25
:101BE000089581B38F7081BB0895813079F028F01A
:101BF0008230A9F08330E1F008958BB38F7090E1CB
:101C0000699FB0011124682B6BBB089588B38F7056
:101C100090E1699FB0011124682B68BB089585B3DA
:101C20008F7090E1699FB0011124682B65BB089506
:101C300082B38F7090E1699FB0011124682B62BB61
:101C40000895EE0FFF1F0590F491E02D0994FB011C
:101C5000DC0102C001900D9241505040D8F7089528
:041C6000F894FFCF26
:101C6400006A0001010178000201425554544F4EAC
:101C740020303A4845524500425554544F4E203185
:101C84003A484552450020202020202020202020B2
:101C94002020202020202000496E69742074617364
:101CA4006B00425554544F4E203000425554544F0B
:0E1CB4004E2031004C43440049444C45000092
:00000001FF
