S01B0000667265652052544F53206368616C6C656E67652E737265633C
S11300000C943A000C9457000C9457000C9457002D
S11300100C9457000C9457000C9457000C94A106B0
S11300200C9457000C9457000C9457000C945700F0
S11300300C9457000C9457000C9457000C945700E0
S11300400C9457000C9457000C9457000C945700D0
S11300500C9457009E02AA02B102B902C002C70260
S1130060CE02D5023A0346034D0355035C036303F2
S11300706A03710311241FBECFE5D8E0DEBFCDBFF4
S113008010E0A0E6B0E0ECE1F8E102C005900D92CA
S1130090A63CB107D9F727E0A6ECB0E001C01D9259
S11300A0A632B207E1F70E940A0B0C940C0C0C94D4
S11300B000000FEF1FEF20E041E068E070E0809166
S11300C0C6009091C7000E94E103C82F60E070E071
S11300D08091C6009091C7000E946904C3FF0BC0C1
S11300E083709927892B21F080E10E94C20303C009
S11300F080E10E94C8038EE190E00E94D609D9CF26
S113010060E070E08091C6009091C7000E9469048D
S1130110EC0181FD25C080E00E948802282F30E098
S1130120C170DD272C173D07D9F0813049F461E017
S113013070E08091C6009091C7000E94780408C0C6
S113014061E070E08091C6009091C7000E9469044C
S113015068E170E08091C6009091C7000E94780425
S113016084E190E00E94D609CBCF60E070E08091FA
S1130170C6009091C7000E946904C82F80FD27C063
S113018081E00E948802282F30E0C1FB002700F99B
S113019010E020173107D9F0813049F462E070E0B3
S11301A08091C6009091C7000E94780408C062E064
S11301B070E08091C6009091C7000E94690468E1D4
S11301C070E08091C6009091C7000E94780484E199
S11301D090E00E94D609C9CF612C712CE12CF12C3E
S11301E0C0E00F2EF3E04F2EF02D0F2EF5E05F2E22
S11301F0F02D6894332432F8D0E00F2EF7E8AF2EB8
S1130200F0E0BF2EF02D0F2EF1E7CF2EF0E0DF2E21
S1130210F02D0F2EF0E68F2EF0E09F2EF02DC23041
S1130220E9F128F4CC2361F0C13079F180C0C43005
S113023009F450C008F43DC0C53009F456C077C075
S11302400FEF1FEF2D2F41E060E170E08091C600B9
S11302509091C7000E94E103182F60E070E0809144
S1130260C6009091C7000E94690414FF60C080FD1D
S11302704DC081FD51C089E790E0682E792E8EE74C
S113028090E0E82EF92EC1E052C00E94B303811120
S113029049C081E090E00E94D60949C061E081E054
S11302A00E949603811140C081E090E00E94D6092B
S11302B03EC08E2D9F2D0E947D03811105C081E0DB
S11302C090E00E94D60933C081E090E00E94D609F4
S11302D0C32D2DC061E082E00E949603811126C0E7
S11302E081E090E00E94D60922C0862D972D0E94BD
S11302F07D03811105C081E090E00E94D60917C0FA
S113030081E090E00E94D609CD2F11C06A2C7B2C8D
S1130310EC2CFD2CC1E00BC0682C792CEC2CFD2CB2
S1130320C1E005C0C2E003C0C42D01C0C52D81E0F9
S113033090E00E94D60973CF68E170E08091C60016
S11303409091C7000E9469040E9485020E94B7032D
S11303500E94E102811105C081E090E00E94D6096B
S1130360F7CF8091CA009091CB000E9448088091F9
S1130370C8009091C9000E9448088091CC009091D7
S1130380CD000E94500AE4CFEF92FF920F93CF93D7
S1130390DF93EC01892B09F47EC00F2EFCECEF2EC9
S11303A0F0E0FF2EF02D05E020E030E045E550E0E0
S11303B068E970E08CE991E00E943F0788830F2E82
S11303C0F0EDEF2EF0E0FF2EF02D03E020E030E022
S11303D045E550E062EA70E089E590E00E943F075D
S11303E089830F2EFAECEF2EF0E0FF2EF02D02E0C1
S11303F020E030E045E550E06BEA70E080E890E012
S11304000E943F078A830F2EF8ECEF2EF0E0FF2EB8
S1130410F02D01E020E030E045E550E064EB70E0D1
S113042085EB90E00E943F078B830F2EFEECEF2EAE
S1130430F0E0FF2EF02D04E020E030E045E550E050
S11304406DEB70E08CEE90E00E943F078C8380E0BF
S113045090E040E030E0FE01E80FF91F20812130F8
S113046011F0C42FD32F019685309105A1F70E9476
S1130470CE039093C7008093C6008091CA009091E8
S1130480CB000E94500A8091C8009091C9000E943C
S1130490500A81E001C08FEFDF91CF910F91FF905F
S11304A0EF900895882319F08130B9F02CC064E0EE
S11304B082E00E947C0B813061F48091D300813012
S11304C019F41092D30008958F5F8093D30080E0D5
S11304D008951092D30080E0089562E081E00E94C4
S11304E07C0B813061F48091D200813019F4109238
S11304F0D20008958F5F8093D20080E00895109217
S1130500D20080E0089580E00895A498BA980895F0
S1130510CF93C82F0E9452028C2F0E945202CF9177
S11305200895E091D6004E2F50E04830510508F070
S113053041C0FA01E65DFF4F0C94060C40E062E016
S113054080E00E944C0B40E064E080E00E944C0B91
S113055080E031C041E068E080E00E944C0B80E024
S11305602AC0682F62956F7080E00E94DA0B80E0E9
S113057022C040E068E080E00E944C0B80E01BC099
S113058041E068E080E00E944C0B80E014C0682FDA
S11305906F7080E00E94DA0B80E00DC040E068E0FC
S11305A080E00E944C0B80E006C08FEF8093D60061
S11305B081E001C080E09091D6009F5F9093D600C7
S11305C00895CF93C091D700C23069F128F4CC23A9
S11305D041F0C130F1F03EC0C33079F1C43079F05C
S11305E039C041E06EE080E00E94180B61E080E0D9
S11305F00E94AA0B84E08093D70080E02CC082E0A4
S11306000E949102813009F4C82FC093D70080E082
S113061022C088E20E949102813009F4C2E0C093B2
S1130620D70080E018C08CE00E949102813009F468
S1130630C3E0C093D70080E00EC081E00E94910225
S1130640813009F4C0E0C093D70081E0CC2319F0D5
S113065080E001C080E0CF910895E091D5004E2F55
S113066050E04830510508F041C0FA01EE5CFF4FFC
S11306700C94060C41E062E080E00E944C0B40E0E8
S113068064E080E00E944C0B80E031C041E068E00F
S113069080E00E944C0B80E02AC0682F62956F7046
S11306A080E00E94DA0B80E022C040E068E080E055
S11306B00E944C0B80E01BC041E068E080E00E9497
S11306C04C0B80E014C0682F6F7080E00E94DA0B3E
S11306D080E00DC040E068E080E00E944C0B80E0C8
S11306E006C08FEF8093D50081E001C080E0909137
S11306F0D5009F5F9093D50008952091D400820F78
S1130700911DFC018081882359F00E942D038130C2
S113071059F48091D4008F5F8093D40080E00895D1
S11307201092D40081E0089580E00895CF93DF9380
S113073000D000D0CDB7DEB790E8998390EC9A83CF
S113074094E99B8394ED9C83FE01E80FF11D6150B5
S11307508081860F0E9491020F900F900F900F904E
S1130760DF91CF91089581E00E949102089541E0C4
S113077060EF81E00E94180B40E060EF81E00E948E
S11307804C0B089541E0682F81E00E944C0B0895C2
S113079040E0682F81E00E944C0B0895CF93DF93D3
S11307A08BE090E00E94E604EC01009731F0FC013C
S11307B011921192CF010E941C05CE01DF91CF91BD
S11307C00895AF92BF92CF92DF92EF92FF920F9370
S11307D01F93CF93DF937C016B01A42EB22E0E9452
S11307E0B908F701C081D181B11008C081E09E0130
S11307F02C213D21232B51F480E008C081E09E018F
S11308002C213D212C153D0509F080E0882361F061
S1130810AA2009F450C0B601609570956C237D231D
S1130820F7017183608347C00115110509F443C0C2
S1130830AA2019F060E071E002C060E070E0B1103D
S113084074606C297D29A801C70102960E94A20A3E
S11308500E945F09811102C00E9448060E94F30AA7
S113086091FD26C00FB6F8940F92F7018081918113
S1130870B11008C021E0A60148235923452B51F4A7
S113088020E008C021E0A601482359234C155D054A
S113089009F020E0222351F0AA2041F0B60160952E
S11308A0709568237923F701718360830F900FBEDD
S11308B0EC01DD2702C00E945F09CE01DF91CF91D8
S11308C01F910F91FF90EF90DF90CF90BF90AF906A
S11308D00895FC010FB6F8940F9280819181609580
S11308E0709568237923718360830F900FBE0895F8
S11308F0AF92BF92CF92DF92EF92FF920F931F932A
S1130900CF93DF937C018B01EC0125960E94B908FB
S1130910D7011796ED91FC9118978D919C911197A1
S1130920082B192B0D931C93CE17DF07A1F100E0C0
S113093010E0BB24B394A12CC280D3808081918128
S11309409C01332792FD0AC0D7016D917C916223EB
S113095073234B2D672B61F44A2D0AC0D7016D9187
S11309607C91622373234B2D6217730709F04A2D80
S1130970442359F090FF02C0022B132BD7016D9131
S11309807C917260CF010E94BB0AEC2DFD2DCE1725
S1130990DF0791F602C000E010E000951095F70122
S11309A08081918108231923118300830E945F09A8
S11309B0D7018D919C91DF91CF911F910F91FF9061
S11309C0EF90DF90CF90BF90AF900895CF93DF93D7
S11309D0EC010E94B9088091D8009091D900892B2C
S11309E031F48DED90E09093D9008093D80020915C
S11309F0DA003091DB00C9018C0F9D1F8B3D45E06F
S1130A00940770F42817390770F4C091D800D09176
S1130A10D900C20FD31F9093DB008093DA0005C086
S1130A20C0E0D0E002C0C0E0D0E00E945F09CE0187
S1130A30DF91CF9108950895FC01039692838183F9
S1130A402FEF3FEF348323839683858390878783B7
S1130A5010820895FC01118610860895CF93DF93C8
S1130A609C01FB01DC011196CD91DC911297D3839B
S1130A70C2838C819D81958384838C819D81DC01DB
S1130A8013967C936E9312977D836C8331872087B2
S1130A90F90180818F5F8083DF91CF910895CF9397
S1130AA0DF93EB01488159814F3F2FEF520721F427
S1130AB0FC01A781B0850DC0DC01139601C0DF01E4
S1130AC01296ED91FC9113972081318142175307BF
S1130AD0B0F71296ED91FC911397FB83EA83D583CB
S1130AE0C483BD83AC831396DC93CE93129799870A
S1130AF08887FC0120812F5F2083DF91CF910895A7
S1130B00CF93DF93FC01A085B185C281D381848119
S1130B1095819D838C83C481D581828193819B83BC
S1130B208A8311968D919C911297E817F90731F4F5
S1130B308481958112969C938E93119711861086C9
S1130B408C9181508C938C91DF91CF91089531E1F8
S1130B50FC013083319722E220833197A3E3A08301
S1130B60319760833197708331971082319760E8B1
S1130B70608331971082319762E06083319763E03C
S1130B806083319764E06083319765E060833197D7
S1130B9066E06083319767E06083319768E0608343
S1130BA0319769E06083319760E1608331973083E6
S1130BB0319732E13083319733E13083319734E137
S1130BC03083319735E13083319736E13083319783
S1130BD037E13083319738E13083319739E130831D
S1130BE0319730E23083319731E23083319720837B
S1130BF0319723E220833197408331975083319793
S1130C0026E22083319727E22083319728E220834C
S1130C10319729E22083319720E32083319721E320
S1130C202083869708951BBC8CE78ABD8BE08EBD1C
S1130C3089B7806189BFA0912407B0912507CD9120
S1130C40CDBFDD91DEBFFF91EF91DF91CF91BF91D9
S1130C50AF919F918F917F916F915F914F913F9150
S1130C602F911F910F91FF90EF90DF90CF90BF9045
S1130C70AF909F908F907F906F905F904F903F9038
S1130C802F901F900F900FBE0F90089581E008954C
S1130C900F920FB6F8940F921F9211242F923F9245
S1130CA04F925F926F927F928F929F92AF92BF9278
S1130CB0CF92DF92EF92FF920F931F932F933F9364
S1130CC04F935F936F937F938F939F93AF93BF9350
S1130CD0CF93DF93EF93FF93A0912407B09125075F
S1130CE00DB60D920EB60D920E94EA09A09124074A
S1130CF0B0912507CD91CDBFDD91DEBFFF91EF917E
S1130D00DF91CF91BF91AF919F918F917F916F911F
S1130D105F914F913F912F911F910F91FF90EF9011
S1130D20DF90CF90BF90AF909F908F907F906F9007
S1130D305F904F903F902F901F900F900FBE0F9099
S1130D4008951F920F920FB60F9211242F933F9381
S1130D504F935F936F937F938F939F93AF93BF93BF
S1130D60EF93FF930E94BF08FF91EF91BF91AF9162
S1130D709F918F917F916F915F914F913F912F91AF
S1130D800F900FBE0F901F901895E091DA06F09126
S1130D90DB068081811107C08FEF9FEF9093BC0623
S1130DA08093BB060895E091DA06F091DB06058096
S1130DB0F681E02D0680F781E02D82819381909366
S1130DC0BC068093BB0608950E944806FDCFFF929F
S1130DD00F931F93CF93DF93EC01F62E0091C3067C
S1130DE01091C406809124079091250702960E94D1
S1130DF08005CF3F8FEFD80769F4FF2059F0609149
S1130E002407709125076E5F7F4F86EC96E00E9461
S1130E102E052FC0C00FD11FE0912407F0912507A4
S1130E20D383C283C017D10768F4609124077091FB
S1130E3025078091D8069091D9066E5F7F4F0E9456
S1130E404F0517C060912407709125078091DA0639
S1130E509091DB066E5F7F4F0E944F058091BB0629
S1130E609091BC06C817D90720F4D093BC06C09350
S1130E70BB06DF91CF911F910F91FF9008954F9280
S1130E805F926F927F928F929F92AF92BF92CF9216
S1130E90DF92EF92FF920F931F93CF93DF934C0156
S1130EA06B015A012901CA010E94E6043C01892B05
S1130EB009F4DCC084E390E00E94E604EC01892B91
S1130EC059F0788E6F8A81E0A81AB1086A0C7B1CED
S1130ED0C114D10429F420C0C3010E941B05C6C05B
S1130EE0D6018C91898F8C918823A1F0AE01465E46
S1130EF05F4FF6013196B4E1CB0ED11CCF012191A5
S1130F00DA012D93AD01DC018C91882319F0CE1602
S1130F10DF06A1F71CA601C0198E063008F005E013
S1130F200E8B0DA71EA66E01B2E0CB0ED11CC6011E
S1130F300E942A05CE010C960E942A05D987C887EB
S1130F4086E090E0801B91099D878C87DB8BCA8BA0
S1130F501FA618AA19AA1AAA1BAAA201B401C3019E
S1130F600E94A70599838883E114F10419F0F7011D
S1130F70D183C0830FB6F8940F928091C5068F5F1A
S1130F808093C5068091240790912507892BA9F5A4
S1130F90D0932507C09324078091C5068130E9F5D5
S1130FA00EEE16E00F2EF4E2EF2EF7E0FF2EF02DFA
S1130FB0C8010E941C05075F1F4F0E151F05C1F7CE
S1130FC085EE96E00E941C058CED96E00E941C05BF
S1130FD08FEC96E00E941C0586EC96E00E941C05AE
S1130FE085EE96E09093DB068093DA068CED96E02E
S1130FF09093D9068093D80610C08091C1068111C0
S11310000CC0E0912407F091250796898E898917F1
S113101020F0D0932507C09324078091BD068F5FED
S11310208093BD068E899091C206981710F4809320
S1131030C20690E09C01220F331F220F331F220FA0
S1131040331F820F931FB6018251994F0E942E05C0
S11310500F900FBE8091C106882331F08091240740
S11310609091250781E003C081E001C08FEFDF91FB
S1131070CF911F910F91FF90EF90DF90CF90BF9091
S1131080AF909F908F907F906F905F904F90089556
S11310900F931F93CF93DF9320912407309125075B
S11310A082179307B9F10097A9F10FB6F8940F923C
S11310B0FC0122853385265C364051F5FC012489E8
S11310C03589F6E02F3C3F0719F1232B09F5EC0194
S11310D08C010E5F1F4FC8010E9480058E8990917C
S11310E0C206981710F48093C20690E09C01220F68
S11310F0331F220F331F220F331F820F931FB80198
S11311008251994F0E942E058091240790912507C2
S11311100F900FBEDF91CF911F910F910895EF9221
S1131120FF920F930F2EF9EBEF2EF6E0FF2EF02D2A
S113113000E020E030E045E550E061EC70E084EE52
S113114096E00E943F07813081F4F8948FEF9FEF7F
S11311509093BC068093BB0681E08093C1061092F5
S1131160C4061092C3060E9413060F91FF90EF90DD
S113117008958091B8068F5F8093B8060895EF9222
S1131180FF920F931F93CF93DF938091B806811141
S113119089C0E090C306F090C4068FEFE81AF80AFD
S11311A0F092C406E092C306E114F104B9F480910C
S11311B0DA069091DB062091D8063091D906309357
S11311C0DB062093DA069093D9068093D8068091A3
S11311D0BE068F5F8093BE060E94C5068091BB0643
S11311E09091BC06E816F90608F461C0E091DA06AD
S11311F0F091DB068081882379F0E091DA06F091A2
S1131200DB060580F681E02DC681D7818A819B812A
S1131210E816F906D8F415C08FEF9FEF9093BC063B
S11312208093BB0644C0E091DA06F091DB060580AA
S1131230F681E02DC681D7818A819B81E816F90663
S113124028F49093BC068093BB0631C08E010E5FD8
S11312501F4FC8010E9480058C899D89892B21F02C
S1131260CE010C960E9480058E899091C206981733
S113127010F48093C20690E09C01220F331F220FCA
S1131280331F220F331F820F931FB8018251994FCE
S11312900E942E05E091DA06F091DB06808181112F
S11312A0C2CFBACF8091C0068F5F8093C00680E022
S11312B0DF91CF911F910F91FF90EF900895DF92EE
S11312C0EF92FF920F931F93CF93DF930FB6F8948F
S11312D00F928091B80681508093B8068091B80629
S11312E0811159C08091C506811133C054C0D70102
S11312F01596ED91FC911697C681D781CE010C9677
S11313000E9480058E010E5F1F4FC8010E94800558
S11313108E899091C206981710F48093C20690E0CB
S11313209C01220F331F220F331F220F331F820F02
S1131330931FB8018251994F0E942E05E091240712
S1131340F09125079E898689981768F0D092BF0688
S11313500AC0C0E0D0E00F2EFFECEF2EF6E0FF2E27
S1131360F02DDD24D394F70180818111C0CFCD2BE2
S113137011F00E94C506C091C006CC2351F0D1E003
S11313800E94BF088111D093BF06C150C9F71092C3
S1131390C0068091BF060F900FBE80E0DF91CF9111
S11313A01F910F91FF90EF90DF900895CF93DF93FB
S11313B0EC01892B51F00E94B90860E0CE010E9433
S11313C0E7060E945F09811102C00E944806DF916E
S11313D0CF9108958091B806882321F081E080930D
S11313E0BF0608951092BF062091C206822F90E096
S11313F0FC01EE0FFF1FEE0FFF1FEE0FFF1FE80FA4
S1131400F91FE251F94F3081311111C02150822F5F
S113141090E0FC01EE0FFF1FEE0FFF1FEE0FFF1F0A
S1131420E80FF91FE251F94F3081332379F3AC010E
S1131430440F551F440F551F440F551F480F591F84
S1131440DA01A251B94F1196ED91FC9112970280E5
S1131450F381E02D1296FC93EE9311974F50594F60
S1131460E417F50729F442815381FD015283418336
S1131470FC01EE0FFF1FEE0FFF1FEE0FFF1F8E0F7D
S11314809F1FFC01E251F94F0180F281E02D86811A
S1131490978190932507809324072093C20608958B
S11314A00F931F93CF93DF93EC010FB6F8940F9231
S11314B0892B21F4C0912407D09125078E010E5F5A
S11314C01F4FC8010E9480058C899D89892B21F0BA
S11314D0CE010C960E948005B80186EC96E00E942D
S11314E02E058BA9813009F41BAA0F900FBE8091A1
S11314F0C106882339F00FB6F8940F920E94C506EE
S11315000F900FBE8091240790912507C817D90723
S1131510A1F48091C106882319F00E9448060DC0E9
S11315209091C6068091C506981305C010922507B0
S11315301092240702C00E94EA09DF91CF911F9103
S11315400F910895CF93DF93EA01E0912407F0917E
S11315502507706875876487609124077091250753
S1131560645F7F4F0E942E0561E0CE010E94E70672
S1131570DF91CF9108950F931F93CF93DF937068FA
S1131580FC0171836083C681D7810E9480058E012E
S11315900E5F1F4FC8010E9480058E899091C2067C
S11315A0981710F48093C20690E09C01220F331F19
S11315B0220F331F220F331F820F931FB801825152
S11315C0994F0E942E05E0912407F09125079E89EA
S11315D08689891718F481E08093BF06DF91CF9143
S11315E01F910F910895E0912407F09125078485B8
S11315F09585E0912407F0912507A0912407B091E7
S1131600250756964C9126E030E0241B3109358796
S113161024870895CF93DF931F92CDB7DEB70E943E
S1131620B703CE0101960E94C4010E948F08FFCF28
S1131630813089F028F08230C9F0833011F10895A7
S1131640413021F48AB3682B6ABB08958AB360954C
S113165068236ABB0895413021F487B3682B67BBC4
S1131660089587B36095682367BB0895413021F4DA
S113167084B3682B64BB089584B36095682364BB0A
S11316800895413021F481B3682B61BB089581B37F
S11316906095682361BB0895813081F028F0823021
S11316A0B9F08330F9F008958BB3962F60956823D1
S11316B0413009F090E0692B6BBB089588B3962FF5
S11316C060956823413009F090E0692B68BB089568
S11316D085B3962F60956823413009F090E0692B1B
S11316E065BB089582B3962F60956823413009F055
S11316F090E0692B62BB0895813079F028F0823044
S1131700A9F08330E1F024C089B390E002C095953C
S113171087956A95E2F78170089586B390E002C0D8
S1131720959587956A95E2F78170089583B390E063
S113173002C0959587956A95E2F78170089580B304
S113174090E002C0959587956A95E2F781700895B7
S113175081E00895813081F028F08230B9F083303F
S1131760F9F00895613021F48AB3806F8ABB08953B
S11317708AB38F708ABB0895613021F487B3806F78
S113178087BB089587B38F7087BB0895613021F4B8
S113179084B3806F84BB089584B38F7084BB089531
S11317A0613021F481B3806F81BB089581B38F7060
S11317B081BB0895813079F028F08230A9F083301C
S11317C0E1F008958BB38F7090E1699FB00111240B
S11317D0682B6BBB089588B38F7090E1699FB0014B
S11317E01124682B68BB089585B38F7090E1699FBD
S11317F0B0011124682B65BB089582B38F7090E10A
S1131800699FB0011124682B62BB0895EE0FFF1F7E
S10F18100590F491E02D0994F894FFCFAA
S113181C425554544F4E2031205072657373656495
S113182C00204C4544204F4E004E554C4C00204C4F
S113183C4544204F666600425554544F4E20302088
S113184C5072657373656400496E697420746173B6
S113185C6B006C6564207461736B00425554544F77
S113186C4E203000425554544F4E2031004C4344CA
S109187C0049444C450044
S9030000FC
